:020000040800F2
:10000000000002204D2400089524000895240008D3
:10001000952400089524000895240008000000009D
:10002000000000000000000000000000952400080F
:10003000952400080000000095240008952400087D
:1000400095240008952400089524000895240008AC
:10005000952400089524000895240008952400089C
:10006000952400089524000895240008952400088C
:10007000952400089524000895240008952400087C
:10008000952400089524000895240008952400086C
:10009000952400089524000895240008952400085C
:1000A000952400089524000895240008952400084C
:1000B000952400089524000895240008952400083C
:1000C000952400089524000895240008952400082C
:1000D000952400089524000895240008952400081C
:1000E000952400089524000895240008952400080C
:1000F00095240008952400089524000895240008FC
:1001000095240008952400089524000895240008EB
:1001100095240008952400089524000899050008F6
:1001200095240008952400089524000895240008CB
:1001300095240008952400089524000895240008BB
:1001400095240008952400089524000895240008AB
:10015000952400089524000895240008952400089B
:10016000952400089524000895240008952400088B
:10017000952400089524000895240008952400087B
:080180009524000895240008F5
:1001880010B5054C237833B9044B13B10448AFF3C9
:1001980000800123237010BD4C04002000000000E3
:1001A800D82C000808B5034B1BB103490348AFF32B
:1001B800008008BD0000000050040020D82C000872
:1001C800154B002B08BF134B9D46A3F5803A002121
:1001D8008B460F461348144A121A02F097FB0F4B2E
:1001E800002B00D098470E4B002B00D098470020DA
:1001F800002104000D000D48002802D00C4802F030
:1002080045FC02F05FFB2000290002F00FF802F025
:1002180049FB00BF000008000000000000000000CB
:10022800000000004C0400209C040020952A0008CF
:10023800A12A0008374B38481A68002142F0010209
:100248001A6099601A6822F0847222F480321A6067
:1002580058601A6882B022F480221A60D96000912E
:1002680001911A6842F480321A6003E0009AB2F5EC
:10027800A06F09D01A6802F400320192009A013284
:100288000092019A002AF1D0224B1B6813F4003324
:1002980018BF01230193019B012B0BD01F4BD3F8EF
:1002A80088204FF0006142F47002C3F888209960FA
:1002B80002B07047174B1A491A6C1A4842F080521C
:1002C8001A640A6842F480420A609A689A609A68D6
:1002D80042F400429A609A6842F4A0529A605860C8
:1002E8001A6842F080721A601A689201FCD50E4AA8
:1002F800084940F2056010609A6822F003029A608B
:100308009A6842F002029A608B6803F00C03082B8B
:10031800FAD1C3E7003802401030002400ED00E0B5
:100328000070004008544007003C0240154A93689A
:1003380003F00C03042B0BD0082B0BD0124B114AE3
:1003480012499268C2F303128A5CD3400B6170476A
:100358000F4BF4E75068516852684302C2F38812A1
:100368004CBF0B4B084B01F03F01B3FBF1F303FB10
:1003780002F3044A5268C2F3014201325200B3FB4D
:10038800F2F3DCE7003802400024F4000400002007
:1003980000127A001849194A0B6C43F0400330B434
:1003A8000B64532584234FF47A741585D462138023
:1003B800938A9BB243F00103938213889BB243F064
:1003C8000103138050B1138ADB07FCD5138A23F08D
:1003D80001031B041B0C01381382F4D10749064A98
:1003E8000B8823F001031B041B0C0B80136C23F0F8
:1003F800400330BC136470470038024000180040C6
:100408001849194A0B6C43F0400330B40B640025BB
:10041800842354241585D4621380938A9BB243F0B5
:100428000103938213889BB243F00103138050B1F8
:10043800138ADB07FCD5138A23F001031B041B0C6A
:1004480001381382F4D10849064A0B8823F00103C6
:100458001B041B0C0B80136C23F0400330BC13648B
:10046800704700BF003802400018004009490A4B95
:100478000A6C30B442F008020A6453254FF0FF3486
:10048800002284201D85DC62188030BC9A805A6264
:10049800704700BF00380240000C0040054A938AAC
:1004A8009BB243F00103938213889BB243F001038C
:1004B80013807047000C0040044A506A138823F0E8
:1004C80001031B041B0C1380704700BF000C004085
:1004D8000E490A6C4FF0804342F0010230B4842088
:1004E8000A64532500224FF0FF341D85DC62188012
:1004F8009A805A629A8A92B242F001029A821A88C3
:1005080092B242F0010230BC1A80704700380240B3
:100518004FF08043586A70474FF080435A6A8242CE
:1005280005D30844904294BF002001207047C3437C
:1005380013448B422CBF0020012070471149124BF5
:100548000A6C124842F0200230B40A645325002194
:100558004FF47A7484221D85DC621A80998059626E
:100568009A8A92B2012542F001024FF400049A825D
:100578009D8180F8371344601A8892B22A431A8002
:1005880030BC7047003802400014004000E100E031
:10059800054B1A8AD20705D504490A68002001329A
:1005A8000A601882704700BF0014004068040020E9
:1005B800014B1868704700BF68040020084B1A6890
:1005C800824205D30844904294BF0020012070471E
:1005D800C34313448B422CBF00200120704700BF47
:1005E800680400200D4ADFF838C0F0B400F10A06AC
:1005F8003027914206F8017D07D33123891A5C1C04
:1006080091421D46E3B2F9D23570ACFB0232864204
:100618004FEAD202EDD1F0BC704700BF00CA9A3B46
:10062800CDCCCCCC70B400F10A04002614F8013DFE
:10063800302BF5B220D00C8813550B886C1C013375
:10064800E4B29BB20A2C0B8012D0C5F1080500F168
:100658000806361BEDB2C4F10904751B044414F8EE
:100668000109D0540B8801339BB2A5420B80F6D107
:10067800002170BCD1547047092E01D00136D5E74E
:10068800088813540B8801339BB20B80002170BC7F
:10069800D15470472DE9F04F87B00023B0F5807F23
:1006A8001370ADF80A3000F0D68043D8013883B211
:1006B8001F2B3CD81F283AD8DFE800F0788B39A0E8
:1006C80039393910393939393939391039393939E4
:1006D8003939393939393939393939100B68002BF1
:1006E80007DA2D2313700B6801205B420B60ADF80D
:1006F8000A00BF48BF4E19460DF10C0A0DF1160449
:100708003025884204F8015D06D83023091A0133E0
:100718008142DBB2FAD22370A6FB0030A2454FEA31
:10072800D000EED10DF10A015046FFF77BFF07B06C
:10073800BDE8F08FB0F5806F76D0B0F5006F18D1B6
:100748000B68104602F10805B3F1204F4FEA137405
:1007580004F130032ABF3734037004700B6801308A
:100768001B0185420B60EFD10023137207B0BDE86F
:10077800F08FB0F5007FDAD10B68C3F30313092BB0
:100788008CBF3733303313700B68180103F00F0335
:10079800092B94BF30333733086053700B6800203F
:1007A8001B010B60907007B0BDE8F08F0B68104616
:1007B80002F10804302631251F064CBF057006706B
:1007C8000B6801305B0084420B60F5D10023137283
:1007D800CCE70B68104602F11004302631251B04C3
:1007E8004CBF057006700B6801305B0084420B60DB
:1007F800F5D10023137407B0BDE8F08F0B681046DD
:1008080002F1200430253126002BB4BF0670057094
:100818000B6801305B0084420B60F5D1002382F83D
:10082800203007B0BDE8F08F0B681046151DC3F3E4
:100838000333092B03F130048ABF37330470037084
:100848000B6801301B0185420B60F0D10023137146
:1008580007B0BDE8F08FD1ED006AF5EEC06AF1EEA1
:1008680010FA06D52D210123F1EE666A1170ADF854
:100878000A30F7EE007AF4EEE76AF1EE10FA00F1CA
:10088800998040F3AD800023B2EE046A67EE867A61
:100898001C46F4EEE76AF1EE10FA03F10103F5DC09
:1008A80087EE867AA4B2202300930DF11608504EE5
:1008B800DFF840B1C4460DF10C0A4FF0300EC6EE19
:1008C800877A9FED4D7AFCEEE76A16EE903AF8EEDD
:1008D800666A77EEE67A67EE877AFCEEE77A17EED5
:1008E800905A9E42E1460CF801ED08D831219B1B35
:1008F8004F1CB3420846F9B2F9D28CF80000ABFBA2
:100908000616E2454FEAD606EBD10DF10A0150462C
:100918000191FFF787FE3648DFF8D8C001993027E4
:10092800A842464608F8017D07D830232D1A01331E
:100938008542DBB2FAD288F80030ACFB0030B14512
:100948004FEAD000ECD12E23504601918DF80F309C
:10095800FFF768FEBDF80A000099431C65259BB2A5
:100968002D2915540199ADF80A3004D1009DD554AC
:100978000230ADF80A004FF0300C1D48DFF874E083
:100988008DF815C0A9F1020905AFAEFB0030B945D5
:100998004FEAD0003FF4C8AE844287F800C007D3BE
:1009A8003123241A5D1C84421E46EBB2F9D23E70F4
:1009B800013FEAE79FED117AF4EEC76AF1EE10FA0B
:1009C80013D5F0EE477A012427EE277A0134F4EEA6
:1009D800C76AF1EE10FAA4B2F6D42D23009364E7A7
:1009E8009FED067A4FF6FF745DE70124F5E700BF37
:1009F80000CA9A3BCDCCCCCC00007A44CDCCCC3DBF
:100A080038B50C4D6B6923F480536B610446C0F311
:100A1800074000F0D7FCC4F3072000F0D3FCE0B295
:100A280000F0D0FC00F0BAFC6B6943F480536B61B2
:100A380038BD00BF0004024070B50D4C636923F453
:100A48008053636140F00406C0F307400D4600F090
:100A5800B9FCC6F3072000F0B5FCF0B200F0B2FC18
:100A6800284600F0AFFC636943F48053636170BDAE
:100A780000040240F8B5450105F5847607461021C3
:100A880030460835FFF7D8FF3046FFF7B9FF044670
:100A98000028F9D105F500701F21FFF7CDFF0A4A9C
:100AA8000123BB4011885088DB431BB2174419400F
:100AB800034005F540753C71118053802846FFF7C7
:100AC8009FFF0028FAD1F8BD6C04002070B5124CC5
:100AD800636923F48053636140F00404C0F3074062
:100AE80015460E4600F06EFCC4F3072000F06AFCC1
:100AF800E0B200F067FC45B10024305D013400F03D
:100B080061FCE3B2AB421C46F7D3034A536943F492
:100B18008053536170BD00BF00040240F8B507461A
:100B280020201C460E46154600F0ECFB39460422F0
:100B38004FF48070FFF7CAFF314604224FF4A060DB
:100B4800FFF7C4FF294604224FF41060FFF7BEFFE9
:100B5800214604224FF47060FFF7B8FF0120F8BD6A
:100B68002DE9F0414FEA800808F10105ED0082B057
:100B780005F51057384616460191FFF741FF05F570
:100B8800145504462846FFF73BFF00EB042084B2C7
:100B9800230208F1020003EBC00001993246FFF777
:100BA80095FFA11938468CB2C1F30721FFF744FF1E
:100BB800E1B2284602B0BDE8F041FFF73DBF00BFF3
:100BC800F8B5114D6B6923F4805304466B61C0F38B
:100BD800074016460F4600F0F5FBC4F3072000F067
:100BE800F1FBE0B200F0EEFB46B1002400F0D6FBCA
:100BF800631CDDB2B54238552C46F7D3024A536917
:100C080043F480535361F8BD0004024038B58400B2
:100C1800E01C01341546E400C000FFF7D1FF04F5DD
:100C28002050290AFFF708FF04F52450E9B2BDE86F
:100C38003840FFF701BF00BF400138B500F1080593
:100C480000F58160FFF7DCFE044605F5A060FFF7BC
:100C5800D7FE00EB042080B238BD00BF2DE9F0417B
:100C68004701083707F50058002607F5045701E043
:100C7800A64217D04046FFF7C3FE05023846FFF7E5
:100C8800BFFEADB2284484B2002CF1D04046FFF735
:100C9800B7FE05023846FFF7B3FEADB2284486B268
:100CA800A642E7D13046BDE8F08100BF2DE9F84300
:100CB8004FEA401808F1080808F5185908F51C57B4
:100CC800002608F5005801E0A64217D04846FFF76D
:100CD80097FE05023846FFF793FEADB2284484B26A
:100CE800002CF1D04046FFF78BFE05023846FFF78F
:100CF80087FEADB2284486B2A642E7D13046BDE8A9
:100D0800F88300BF02B970472AE700BF02B97047ED
:100D18007CE700BF002A4CD02DE9F8434FF00408C7
:100D28004FF0010918FB0094E4000D4607464946B8
:100D380020461646FFF780FE4246294604F54060E5
:100D4800FFF7C4FE04F58050310AFFF775FE04F57D
:100D58008075F1B204F58850FFF76EFE49462846C3
:100D6800FFF76AFE41462846FFF766FE2846FFF76A
:100D780047FE0028FAD1154B1B8843FA07F7FA07F4
:100D880015D404F5407504F5007408E0FFF738FE43
:100D980003461B0728460ED4FFF732FE90B12846BB
:100DA800FFF72EFE0346172B2046EFD10120BDE8A2
:100DB800F8830B20704720460821FFF73DFE0D20E1
:100DC800BDE8F8830420BDE8F88300BF6C04002068
:100DD8002DE9F0414FF0010808EB8005ED000E46C3
:100DE800074641462846FFF727FE05F58060310A89
:100DF800FFF722FE05F5807405F5A060F1B2FFF754
:100E08001BFE41462046FFF717FE05F540752046B4
:100E18000221FFF711FE2846FFF7F2FD2046FFF7F3
:100E2800EFFD0028FAD12846FFF7EAFD14280AD07A
:100E3800082F02D90420BDE8F0813846FFF71AFED2
:100E48000420BDE8F0810120BDE8F0812DE9F84FCC
:100E58004FEA401909F54278044640468A46154645
:100E6800FFF7CEFD172809F1080901D01C2840D149
:100E78002E4F7B882341D9072AD40126A64009F59D
:100E8800F850FFF7BDFD2046FFF7E8FE83464046D1
:100E9800FFF7B6FD172801D01C2825D13B8833421F
:100EA80002D0BBF1030F1CD9AB45ECD325BB09F528
:100EB800807948462021FFF7BFFD4846FFF7A0FD8F
:100EC8000028FAD17B881E4328467E80BDE8F88F2B
:100ED80009F500763046FFF793FDC20616D40307DE
:100EE80010D40020BDE8F88F082C02D82046FFF760
:100EF800C1FD0720BDE8F88F514620462A46FFF776
:100F08002FFED4E7082C0CD90D20F3E7304610212A
:100F1800FFF792FD01267B88A64023EA06037B8023
:100F2800ADE72046FFF7A6FD0D20E3E76C0400209F
:100F38002DE9F04F012404EB8005ED0083B005F5A1
:100F480080788346404601919146FFF759FD05F5A3
:100F5800F050FFF755FD2A4F05F5407604FA0BF4DB
:100F680005F5F8555846FFF7A1FE82463046FFF7CB
:100F780047FD0346172B584614D01C2B31D1BAF124
:100F8800000F15D1FFF76AFE82462846FFF738FDA5
:100F9800BAEB802F25D03B882342E3D0002003B052
:100FA800BDE8F08F3B88234217D0BAF1000FF5D087
:100FB800B9F1000F04D0019958464A46FFF726FEBA
:100FC80040214046FFF738FD4046FFF719FD00284D
:100FD800FAD1484603B0BDE8F08FBAF1000FC1D08E
:100FE800E6E7BBF1080F03D9072003B0BDE8F08F8F
:100FF8005846FFF73FFD072003B0BDE8F08F00BF5C
:101008006C040020082801D90120704708B5FFF7B3
:1010180031FD012008BD00BF114A124B124910B41E
:10102800146B44F001041463146C44F40034146425
:101038001A6842F0A0021A601A6A42F4EE421A6272
:101048009A6842F020029A609A6842F20C0480B2D0
:1010580042F080029A6008818C815DF8044B7047E9
:10106800003802400000024000440040034A138850
:101078005B06FCD580B29080704700BF00440040FA
:101088000C4A30B4441E0D2500F2FF3014F8011F3D
:1010980049B113885B06FCD589B2918023780A2B65
:1010A80003D08442F2D130BC704713885B06FCD56C
:1010B8009580F6E7004400400FB42DE9F0478CB066
:1010C80014AB53F804AB01939AF80020002A35D0EA
:1010D80000247C4DDFF8F091234651464FF00D086F
:1010E8000BE00AEB03025378BBB90134A4B22346E0
:1010F8001AF804200AEB040102B3252AF1D02B8840
:101108005806FCD592B2AA800B780A2BEDD12B8811
:101118005B06FCD5A5F80480E7E7623B162B75D87B
:10112800DFE803F0665C4E742B7474747474747422
:101138007474747474227474747411000CB0BDE8FF
:10114800F04704B070479378622B00F08E80682BCC
:1011580066D0772B019B00F09B801A1D1B684FF40B
:101168000060CDE9003223E0019B1A1D1868019246
:10117800FFF786FF0134A4B2B7E7019B073323F0DA
:101188000703D3E90001083309EAC10200280193E3
:1011980042EA507371F10002B8BF43F000430026E1
:1011A80001F08047009356EA070332D14FF480706C
:1011B80002AA6946FFF76EFA02A8FFF761FFD9E7AE
:1011C8009378622B48D0682B3DD0772B019B68D051
:1011D8001A1D1B682020CDE90032E9E7019B191D83
:1011E8001A7801912B885E06FCD593B2AB80C1E7D3
:1011F8009378622B43D0682B1CD0772B019B58D057
:101208001A1D1B680420CDE90032D1E700230093A2
:10121800B0E7009B43F0804300934FF48070C7E72A
:10122800019B01341A1D1B680192A4B200934FF46C
:101238008060BDE7019B01341A1D1B680192A4B2AE
:1012480000930220B4E7019B01341A1D1B68019228
:10125800A4B200931020ABE7019B01341A1D1B6850
:101268000192A4B200930820A2E7019B01341A1D41
:101278001B680192A4B200934FF4007098E7019B99
:1012880001341A1D1B680192A4B2009301208FE754
:101298001A1D01341B680192A4B200934FF4006038
:1012A80086E71A1D01341B680192A4B2009320201E
:1012B8007EE71A1D01341B680192A4B20093042032
:1012C80076E700BF00440040F8FFFF3F0C4B9A89C7
:1012D80092B242F4005242F004029A811A889206AD
:1012E800FCD598881A8822F020021204120C1A8061
:1012F8009A8922F004021204120CC0B29A81704733
:101308000044004010B4224C224B216B224A41F089
:1013180002012163196821F07C411960196841F0C4
:1013280028411960596A41F0AA4141F4A001596263
:10133800996841F028419960196821F04071196055
:10134800196841F080711960596821F0407159603D
:10135800996841F000719960596941F48051596167
:10136800236C042143F480432364118013885DF8BF
:10137800044B9BB243F44073138013889BB203431E
:10138800138013889BB243F040031380704700BF5B
:10139800003802400004024000380040084A002398
:1013A800938113899807FCD5054A1389D907FCD579
:1013B800034A13891B06FCD49089C0B2704700BF4A
:1013C80000380040074A908113899807FCD5054AE0
:1013D8001389D907FCD5034A13891B06FCD49089C5
:1013E800C0B27047003800402049214B214A30B430
:1013F8000D6B214C45F001050D63256845F4284522
:101408002560256A45F0AA4545F4A0052562A5682A
:1014180045F42845A5600C6B44F010040C631C6867
:1014280044F040041C605C6824F008045C609C681C
:1014380044F080049C605C6944F008045C614B6C77
:10144800042443F480534B64148013889BB243F400
:101458004073138013889BB20343138013889BB295
:1014680043F0400330BC1380704700BF003802408F
:10147800001002400030014000000240084A0023EA
:10148800938113899807FCD5054A1389D907FCD598
:10149800034A13891B06FCD49089C0B2704700BF69
:1014A80000300140074A908113899807FCD5054A06
:1014B8001389D907FCD5034A13891B06FCD49089E4
:1014C800C0B270470030014010B52D4C2020FFF706
:1014D8008BFF636923F0080363612020FFF7E2FFB5
:1014E8004720FFF7DFFF636943F008036361642067
:1014F800FEF750FF636923F008036361A020FFF73C
:10150800D1FFFFF7BBFF01461E48FFF7D5FD636912
:1015180043F008036361636923F008036361A12052
:10152800FFF7C0FFFFF7AAFF01461748FFF7C4FD02
:10153800636943F008036361636923F00803636127
:10154800A220FFF7AFFFFFF799FF01460F48FFF70B
:10155800B3FD636943F008036361636923F008031B
:1015680063618F20FFF79EFFFFF788FF0146084859
:10157800FFF7A2FD636943F00803636110BD00BF74
:1015880000100240002C0008242C0008482C0008F9
:101598006C2C00082DE9F0410023294C037043709E
:1015A8008370636923F0080382B063610546A7204E
:1015B800FFF778FFFFF762FF636943F00803636191
:1015C8006420FEF71DFF1F4B93E803000090ADF861
:1015D8000410636923F008036361A920FFF762FF21
:1015E8006C460DF10606FFF749FF04F8010BB442FB
:1015F800F9D1134C1448636943F0080363619DF8FB
:1016080000809DF802709DF8046041463A463346D2
:10161800FFF752FD85F800806F70AE70636923F0A4
:10162800080363612020FFF73DFF4720FFF73AFFDB
:10163800636943F00803636102B0BDE8F08100BF4D
:10164800001002408C2B0008942C0008082D00087C
:10165800000000204C0400204C0400209C040020C2
:1016680070B54FF0FF0C4CF4E06C1CEA11541DBF30
:101678001CEA135594EA0C0F95EA0C0F00F0DEF8FB
:101688002C4481EA030621EA4C5123EA4C5350EAE0
:10169800013518BF52EA033541F4801143F4801331
:1016A80038D0A0FB02CE4FF00005E1FB02E506F0C2
:1016B8000042E0FB03E54FF00006E1FB03569CF017
:1016C800000F18BF4EF0010EA4F1FF04B6F5007F1D
:1016D80064F5407404D25FEA4E0E6D4146EB06068F
:1016E80042EAC62141EA55514FEAC52040EA5E5018
:1016F8004FEACE2EB4F1FD0C88BFBCF5E06F1ED8C2
:10170800BEF1004F08BF5FEA500E50F1000041EBF8
:10171800045170BD06F0004646EA010140EA0200A5
:1017280081EA0301B4EB5C04C2BFD4EB0C0541EAC7
:10173800045170BD41F480114FF0000E013C00F3DC
:10174800AB8014F1360FDEBF002001F0004170BD00
:10175800C4F10004203C35DA0C341BDC04F1140419
:10176800C4F1200500FA05F320FA04F001FA05F2A5
:1017780040EA020001F0004221F0004110EBD37072
:1017880021FA04F642EB06015EEA430E08BF20EA9E
:10179800D37070BDC4F10C04C4F1200500FA04F341
:1017A80020FA05F001FA04F240EA020001F00041D3
:1017B80010EBD37041F100015EEA430E08BF20EA46
:1017C800D37070BDC4F1200500FA05F24EEA020E8E
:1017D80020FA04F301FA05F243EA020321FA04F0BD
:1017E80001F0004121FA04F220EA020000EBD37074
:1017F8005EEA430E08BF20EAD37070BD94F0000F74
:101808000FD101F00046400041EB010111F4801FA7
:1018180008BF013CF7D041EA060195F0000F18BF58
:10182800704703F00046520043EB030313F4801F94
:1018380008BF013DF7D043EA0603704794EA0C0F4E
:101848000CEA135518BF95EA0C0F0CD050EA410664
:1018580018BF52EA4306D1D181EA030101F00041E1
:101868004FF0000070BD50EA410606BF1046194609
:1018780052EA430619D094EA0C0F02D150EA013615
:1018880013D195EA0C0F05D152EA03361CBF104656
:1018980019460AD181EA030101F0004141F0FE41F5
:1018A80041F470014FF0000070BD41F0FE4141F479
:1018B800780170BD81F0004102E000BF83F0004371
:1018C80030B54FEA41044FEA430594EA050F08BFD3
:1018D80090EA020F1FBF54EA000C55EA020C7FEA97
:1018E800645C7FEA655C00F0E2804FEA5454D4EB14
:1018F8005555B8BF6D420CDD2C4480EA020281EADE
:10190800030382EA000083EA010180EA020281EA15
:101918000303362D88BF30BD11F0004F4FEA013167
:101928004FF4801C4CEA113102D0404261EB410176
:1019380013F0004F4FEA03334CEA133302D05242FC
:1019480063EB430394EA050F00F0A780A4F10104B8
:10195800D5F1200E0DDB02FA0EFC22FA05F28018F2
:1019680041F1000103FA0EF2801843FA05F35941D8
:101978000EE0A5F120050EF1200E012A03FA0EFC57
:1019880028BF4CF0020C43FA05F3C01851EBE37181
:1019980001F0004507D54FF0000EDCF1000C7EEB9E
:1019A80000006EEB0101B1F5801F1BD3B1F5001FDC
:1019B8000CD349085FEA30004FEA3C0C04F10104FB
:1019C8004FEA445212F5800F80F09A80BCF1004F24
:1019D80008BF5FEA500C50F1000041EB045141EAA6
:1019E800050130BD5FEA4C0C404141EB0101013C6F
:1019F80028BFB1F5801FE9D291F0000F04BF01465E
:101A08000020B1FA81F308BF2033A3F10B03B3F12F
:101A180020020CDA0C3208DD02F1140CC2F10C02BF
:101A280001FA0CF021FA02F10CE002F11402D8BF1D
:101A3800C2F1200C01FA02F120FA0CFCDCBF41EAE9
:101A48000C019040E41AA2BF01EB0451294330BDB8
:101A58006FEA04041F3C1CDA0C340EDC04F1140495
:101A6800C4F1200220FA04F001FA02F340EA03006C
:101A780021FA04F345EA030130BDC4F10C04C4F1B2
:101A8800200220FA02F001FA04F340EA0300294692
:101A980030BD21FA04F0294630BD94F0000F83F4DC
:101AA800801306BF81F480110134013D4EE77FEABF
:101AB800645C18BF7FEA655C29D094EA050F08BF0B
:101AC80090EA020F05D054EA000C04BF19461046EC
:101AD80030BD91EA030F1EBF0021002030BD5FEA30
:101AE800545C05D14000494128BF41F0004130BD58
:101AF80014F580043CBF01F5801130BD01F00045AC
:101B080045F0FE4141F470014FF0000030BD7FEA1E
:101B1800645C1ABF194610467FEA655C1CBF0B4619
:101B2800024650EA013406BF52EA033591EA030F30
:101B380041F4002130BD00BF90F0000F04BF002128
:101B4800704730B54FF4806404F132044FF000055B
:101B58004FF0000150E700BF90F0000F04BF0021D4
:101B6800704730B54FF4806404F1320410F000453A
:101B780048BF40424FF000013EE700BF42004FEA35
:101B8800E2014FEA31014FEA02701FBF12F07F43B2
:101B980093F07F4F81F06051704732F07F4208BF69
:101BA800704793F07F4F04BF41F40021704730B570
:101BB8004FF4607401F0004521F000411CE700BFBC
:101BC80050EA010208BF704730B54FF000050AE03F
:101BD80050EA010208BF704730B511F0004502D540
:101BE800404261EB41014FF4806404F132045FEA42
:101BF800915C3FF4D8AE4FF003025FEADC0C18BFEB
:101C080003325FEADC0C18BF033202EBDC02C2F1DC
:101C1800200300FA03FC20FA02F001FA03FE40EA6E
:101C28000E0021FA02F11444BDE600BF70B54FF072
:101C3800FF0C4CF4E06C1CEA11541DBF1CEA135550
:101C480094EA0C0F95EA0C0F00F0DEF82C4481EAB8
:101C5800030621EA4C5123EA4C5350EA013518BFD8
:101C680052EA033541F4801143F4801338D0A0FBC5
:101C780002CE4FF00005E1FB02E506F00042E0FB72
:101C880003E54FF00006E1FB03569CF0000F18BF78
:101C98004EF0010EA4F1FF04B6F5007F64F5407420
:101CA80004D25FEA4E0E6D4146EB060642EAC621B3
:101CB80041EA55514FEAC52040EA5E504FEACE2E20
:101CC800B4F1FD0C88BFBCF5E06F1ED8BEF1004F23
:101CD80008BF5FEA500E50F1000041EB045170BD9F
:101CE80006F0004646EA010140EA020081EA0301E3
:101CF800B4EB5C04C2BFD4EB0C0541EA045170BDDF
:101D080041F480114FF0000E013C00F3AB8014F158
:101D1800360FDEBF002001F0004170BDC4F10004A1
:101D2800203C35DA0C341BDC04F11404C4F1200522
:101D380000FA05F320FA04F001FA05F240EA02007D
:101D480001F0004221F0004110EBD37021FA04F6B3
:101D580042EB06015EEA430E08BF20EAD37070BD6D
:101D6800C4F10C04C4F1200500FA04F320FA05F0CC
:101D780001FA04F240EA020001F0004110EBD370CE
:101D880041F100015EEA430E08BF20EAD37070BD3E
:101D9800C4F1200500FA05F24EEA020E20FA04F317
:101DA80001FA05F243EA020321FA04F001F00041C6
:101DB80021FA04F220EA020000EBD3705EEA430E37
:101DC80008BF20EAD37070BD94F0000F0FD101F066
:101DD8000046400041EB010111F4801F08BF013C9F
:101DE800F7D041EA060195F0000F18BF704703F0DD
:101DF8000046520043EB030313F4801F08BF013D64
:101E0800F7D043EA0603704794EA0C0F0CEA13551F
:101E180018BF95EA0C0F0CD050EA410618BF52EAD9
:101E28004306D1D181EA030101F000414FF00000DF
:101E380070BD50EA410606BF1046194652EA4306ED
:101E480019D094EA0C0F02D150EA013613D195EA61
:101E58000C0F05D152EA03361CBF104619460AD1A9
:101E680081EA030101F0004141F0FE4141F47001B3
:101E78004FF0000070BD41F0FE4141F4780170BDA3
:101E880070B54FF0FF0C4CF4E06C1CEA11541DBF08
:101E98001CEA135594EA0C0F95EA0C0F00F0A7F80A
:101EA800A4EB050481EA030E52EA03354FEA013137
:101EB80000F088804FEA03334FF0805545EA13134A
:101EC80043EA12634FEA022245EA111545EA106512
:101ED8004FEA00260EF000419D4208BF964244F1A9
:101EE800FD0404F5407402D25B084FEA3202B61AC8
:101EF80065EB03055B084FEA32024FF480104FF49C
:101F0800002CB6EB020E75EB030E22BFB61A75460F
:101F180040EA0C005B084FEA3202B6EB020E75EBA2
:101F2800030E22BFB61A754640EA5C005B084FEA0A
:101F38003202B6EB020E75EB030E22BFB61A7546D7
:101F480040EA9C005B084FEA3202B6EB020E75EBE2
:101F5800030E22BFB61A754640EADC0055EA060EA3
:101F680018D04FEA051545EA16754FEA06164FEAE6
:101F7800C30343EA52734FEAC2025FEA1C1CC0D192
:101F880011F4801F0BD141EA00014FF000004FF01F
:101F9800004CB6E711F4801F04BF01430020B4F1E0
:101FA800FD0C88BFBCF5E06F3FF6AFAEB5EB030C98
:101FB80004BFB6EB020C5FEA500C50F1000041EB95
:101FC800045170BD0EF0004E4EEA113114EB5C0462
:101FD800C2BFD4EB0C0541EA045170BD41F4801135
:101FE8004FF0000E013C90E645EA060E8DE60CEA3D
:101FF800135594EA0C0F08BF95EA0C0F3FF43BAF5A
:1020080094EA0C0F0AD150EA01347FF434AF95EA10
:102018000C0F7FF425AF104619462CE795EA0C0FF4
:1020280006D152EA03353FF4FDAE1046194622E7C1
:1020380050EA410618BF52EA43067FF4C5AE50EA9B
:1020480041047FF40DAF52EA43057FF4EBAE12E78B
:102058004FF0FF3C06E000BF4FF0010C02E000BF6C
:102068004FF0010C4DF804CD4FEA410C7FEA6C5C4F
:102078004FEA430C18BF7FEA6C5C1BD001B050EAF2
:10208800410C0CBF52EA430C91EA030F02BF90EADD
:10209800020F0020704710F1000F91EA030F58BF9C
:1020A800994208BF90422CBFD8176FEAE37040F0FE
:1020B800010070474FEA410C7FEA6C5C02D150EA9C
:1020C800013C07D14FEA430C7FEA6C5CD6D152EA57
:1020D800033CD3D05DF8040B704700BF844610461C
:1020E80062468C461946634600E000BF01B5FFF71B
:1020F800B7FF002848BF10F1000F01BD4DF808EDEB
:10210800FFF7F4FF0CBF012000205DF808FB00BFBB
:102118004DF808EDFFF7EAFF34BF012000205DF815
:1021280008FB00BF4DF808EDFFF7E0FF94BF012062
:1021380000205DF808FB00BF4DF808EDFFF7CEFF63
:1021480094BF012000205DF808FB00BF4DF808EDA2
:10215800FFF7C4FF34BF012000205DF808FB00BF73
:102168004FEA410C7FEA6C5C02D150EA013C0AD18B
:102178004FEA430C7FEA6C5C02D152EA033C02D17D
:102188004FF0000070474FF0010070474FEA4102DE
:10219800B2F1E04324BFB3F5001CDCF1FE5C0DD9BD
:1021A80001F0004C4FEAC0024CEA5070B2F1004F07
:1021B80040EB830008BF20F00100704711F0804F0A
:1021C80021D113F13872BCBF01F00040704741F4CF
:1021D80080114FEA5252C2F11802C2F1200C10FAD3
:1021E8000CF320FA02F018BF40F001004FEAC123B7
:1021F8004FEAD32303FA0CFC40EA0C0023FA02F35B
:102208004FEA4303CCE77FEA625307D150EA013330
:102218001EBF4FF0FE4040F44000704701F0004000
:1022280040F0FE4040F40000704700BF2DE9F04F39
:102238007849794B0A6B794D794C42F008022DEDBB
:10224800048B0A631A6842F080721A605A685A60EE
:102258009A6842F000728FB09A604FF4B670FEF739
:10226800DBFE704B704A089293E803000CAA0AAB95
:102278000C90ADF834106FF07F4609A908A8CDE995
:102288000A540996FEF74AFCFFF71EF94FF4FA6064
:10229800FEF780F813214FF48560FEF7CDFB882107
:1022A8004FF4A560FEF7C8FB9DF82F309DF82D2050
:1022B8009DF82C105D4800939DF82E30FEF7FCFE2B
:1022C80041F288320BA90120FEF724FD012808D02D
:1022D8005748FEF7F1FE00200FB0BDEC048BBDE8B7
:1022E800F08F5448DFED549A9FED549A544FFEF7FF
:1022F800E3FE06A8FFF74EF99DF919509DF91A401B
:102308009DF9186014FB04F815FB05FB0BEB08009E
:10231800FFF722FC41EC100B00F09AF95AEC109BE5
:102328003046FFF719FC4A465346FFF7A9FDFFF769
:102338002DFF00EE100A00F0ABF816FB06FA08EBCA
:102348000A00F0EE408AFFF707FC41EC100B00F0A2
:102358007FF959EC108B2846FFF7FEFB42464B46A7
:10236800FFF78EFDFFF712FF00EE100A00F090F85D
:102378000BEB0A00B0EE408AFFF7EEFB41EC100BC6
:1023880000F066F9204659EC108BFFF7E5FB024692
:102398000B4640464946FFF773FDFFF7F7FE00EE90
:1023A800100A00F075F868EEA97AF0EE408AC7EED8
:1023B800897A28EE298A17EE900AFFF7DFFB28EEC4
:1023C800A90A0246C0EE097A0B46CDE9042317EEA6
:1023D800900AFFF7D3FBC8EE097ACDE9020117EEA0
:1023E800900AFFF7CBFBDDE90423CDE9000138466D
:1023F800FEF762FE032207A901208DF81C608DF804
:102408001D508DF81E40FEF721FD6420FDF7C2FF28
:102418006FE700BF00380240000C0240C0A80078F7
:10242800C0A80077842B0008C0A80001942B0008DE
:10243800F02B0008B02B000800003443C3F54840D7
:10244800CC2B0008002103E00B4B5B5843500431B0
:102458000A480B4B42189A42F6D30A4A02E0002374
:1024680042F8043B084B9A42F9D3FDF7E3FE00F02B
:1024780029FAFFF7DBFE7047082D0008000000204E
:102488004C0400204C0400209C040020FEE70000BF
:1024980038B510EE105A25F00044B4F1A14FF0EE13
:1024A800407A0BDBB4F1FF4F59DCDFED527A9FED38
:1024B800520A002DC8BFB0EE670A38BD4F4B9C4288
:1024C8005CDCB4F1445F4DDB4FF0FF3327EEA76AC5
:1024D8009FED4B1A9FED4B2A9FED4B3ADFED4B1AC0
:1024E800DFED4B2A9FED4B4ADFED4B3A9FED4B5A00
:1024F800DFED4B4ADFED4B6ADFED4B5A26EE067AED
:102508005A1CA7EE012AE7EE212AA2EE073AE2EECC
:10251800873AA3EE074AE3EE874AA4EE075AE4EEA9
:10252800875AE5EE076A25EE877A66EE866A3AD01C
:102538003E493F4A01EB830176EE876A91ED000A36
:1025480096EEA70A02EB8303002D93ED007A70EE56
:10255800677A37EE670AB0DAB1EE400A38BD30EE76
:10256800000A38BD9FED337A30EE077AF7EE006A3D
:10257800B4EEE67AF1EE10FAA6DD38BD00F060F8A8
:102588002D4B9C4216DCA3F5D0039C4227DCF0EED1
:10259800007ABFEE007AA0EE277A002330EE270AF1
:1025A800C7EE007A92E776EE876AE6EEE77AB0EE53
:1025B800670A38BD214B9C420BDCF7EE087AB7EE70
:1025C800007AA0EE277A022330EE670AC0EE077A77
:1025D8007CE7BFEE007AC7EE007A032376E7F7EED2
:1025E800007A30EE677A30EE270A0123C7EE007AC8
:1025F8006CE700BFDB0FC93FDB0FC9BFFFFFDF3E42
:10260800D769853C59DA4B3D356B883D21A215BD0C
:102618006BF16EBD6E2EBA3D95879DBD2549123E64
:10262800388EE3BDABAAAA3ECDCC4CBEBC2C00086C
:10263800AC2C0008CAF24971FFFF973FFFFF1B400F
:1026480010EE103A23F0004300EE103A704700BF36
:102658002DE9F0432DED028B8BB055EC104B00F0BB
:1026680055F8284BB0EE408AF0EE608A93F9007076
:102678007B1C12D022462B4620462946FFF770FDC8
:10268800064650B94FF000084FF000092046294689
:1026980042464B46FFF73CFD40B9B0EE480AF0EE23
:1026A800680A0BB0BDEC028BBDE8F083164B0896A8
:1026B8000122CDE90445CDE902450092019397B185
:1026C80042464B4640464946FFF7DAFB022FCDE922
:1026D80006010AD100F0E0F821230360089B63B9E2
:1026E8009DED068BD9E7CDE90689684600F0D2F85A
:1026F8000028EFD0089B002BF2D000F0CDF8089B03
:102708000360EDE718000020CC2C00082DE9F0410B
:102718005F4A57EC106BBA4300F09880002F10EE18
:10272800104A3B464EDD39155BD0C3F31303CA0785
:1027380043F48013A1F2FF3E03D45B0003EBD47390
:102748006400E20F4FF0000C02EB43034FEA6E0EF9
:102758006400664616254FF40012B118994202DC4F
:102768005B1A8E1894445B00013D03EBD4734FEA67
:1027780052024FEA4404F0D12F4620204FF0004285
:1027880009E03ED0E10F01384FEA520201EB430362
:102798004FEA44043ED0B34202EB0501F1DD0029C3
:1027A80001EB020509DBB0469B1BA14288BF03F180
:1027B800FF33641A17444646E4E7002DF3DB06F1BD
:1027C8000108F1E727F00042324336D0002F4DD1FF
:1027D8003946E20A153964051346002AF9D0D702AA
:1027E80051D400205B00DE02054600F10100F9D556
:1027F8001A4623468440C0F12000C3401343491BB6
:1028080093E7A142BED8002901EB0205D5DB984623
:102818000023CEE7234312D178084FEA6C0101F177
:102828007F511CF0010F01F5001118BF40F0004066
:1028380001EB0E53024643EC102BBDE8F0817B1CE4
:1028480016BF781C0CF1010C4008E6E710EE102AC0
:1028580010EE100A3B463946FFF7E8F932463B4688
:10286800FFF72EF841EC100BBDE8F08110EE102AAE
:1028780030463946FFF722F802460B46FFF700FBC1
:1028880041EC100BD9E7234620204FF0FF35B4E781
:102898000000F07F00207047014B1868704700BFA8
:1028A8001C00002008B50021044600F089F8044BFC
:1028B8001868C36B03B19847204600F017FA00BFA9
:1028C800D42C000870B50D4E0D4D761BB61006D0F1
:1028D800002455F8043B01349847A642F9D1094E23
:1028E800094D761B00F0F6F9B61006D0002455F80D
:1028F800043B01349847A642F9D170BDFC2C00086E
:10290800FC2C0008042D0008FC2C0008F0B48607F5
:1029180046D0541E002A3CD0CAB2034601E0013C0E
:1029280037D303F8012B9D07F9D1032C2AD9CDB24F
:1029380045EA05250F2C45EA054534D9A4F11002CE
:1029480022F00F0C03F120071609674403F1100267
:1029580042E9045542E902551032BA42F8D1721CD4
:1029680014F00C0F03EB021204F00F0613D0331F00
:1029780023F003030433134442F8045B9342FBD16E
:1029880006F003042CB1CAB21C4403F8012B9C4284
:10299800FBD1F0BC704734461346002CF3D1F8E75E
:1029A80014460346C1E71A462646E0E7024B13B130
:1029B800024800F06BB8704700000000A12A000828
:1029C8002DE9F84F2F4B2DED028B834618680F46E3
:1029D80000F082F82C4BD3F80080D8F84861AEB1EB
:1029E80008EE10BA4FF001094FF0000A7468651E2E
:1029F8000CD4013406EB840487B1D4F80031BB420F
:102A08000CD0013D6B1CA4F10404F5D1BDEC028B84
:102A18001C4B1868BDE8F84F00F066B87368226868
:102A2800013BAB420CBF7560C4F800A0002AE8D097
:102A3800D6F88801D6F804B009FA05F101420BD19D
:102A4800904772685A4513D1D8F84831B342D8D064
:102A58001E46002ECAD1D9E7D6F88C0101420CD106
:102A6800D4F8801018EE100A904772685A45EBD0D7
:102A7800D8F84861002EB9D1C8E7D4F8800090474B
:102A8800DFE700BF48040020D42C000800230146DB
:102A98001A46184600F02AB838B5084B084D5B1B93
:102AA8009C1007D0043B1D44013C55F80439984755
:102AB800002CF9D1BDE8384000F012B9082D000803
:102AC800042D0008704700BF704700BF704700BF63
:102AD800704700BF704700BF704700BF01207047B4
:102AE80001207047704700BF704700BF2DE9F047CD
:102AF800DFF880A00646DAF8000098460F469146AF
:102B0800FFF7EAFF1A4B1B68D3F8484124B36568FE
:102B18001F2D26DC5EB9AB1C0135DAF800006560B4
:102B280044F82370FFF7E0FF0020BDE8F08704EBCE
:102B380085030121C3F88890D4F88821A9400A4365
:102B4800022EC4F88821C3F80881E4D1D4F88C3166
:102B58001943C4F88C11DEE703F5A674C3F848419D
:102B6800D5E7DAF80000FFF7BFFF4FF0FF30DCE7EA
:102B7800D42C000848040020FEE700BF0008DC0150
:102B8800020300000000000000000000436F6E6EAA
:102B9800656374696E6720746F2025642E25642E22
:102BA80025642E25640A0000436F6E6E65637469A0
:102BB8006F6E3A2045737461626C69736865640A64
:102BC800000000002D3E204C49533330323A200992
:102BD800785B25665D2009795B25665D20097A5B4F
:102BE80025665D0A000000004E6F7420636F6E6EEC
:102BF8006563746564210A002D3E204C49533330C7
:102C0800323A204C4953333032444C5F4354524C8F
:102C18005F52454731205B25785D0A002D3E204CE8
:102C280049533330323A204C4953333032444C5FA5
:102C38004354524C5F52454732205B25785D0A0069
:102C48002D3E204C49533330323A204C49533330CF
:102C580032444C5F4354524C5F52454733205B2506
:102C6800785D0A002D3E204C49533330323A204CCF
:102C78004953333032444C5F5245475F57484F5FA2
:102C8800414D5F49205B25785D0A000061783A2054
:102C980025642C2061793A2025642C20617A3A2019
:102CA800256400003863ED3EDA0F493F5E987B3FAC
:102CB800DA0FC93F6937AC3168212233B40F1433B6
:102CC8006821A23373717274000000002000002094
:102CD80000000000F8B500BFF8BC08BC9E4670476D
:0C2CE800F8B500BFF8BC08BC9E46704761
:082CF400D4D4FF7F01000000B1
:082CFC00B5290008AD01000834
:042D04008901000839
:102D080000000000000000000000000001020304B1
:102D180006070809007A030A0100000020000020C5
:102D2800000000000C03002074030020DC030020D6
:102D3800000000000000000000000000000000008B
:102D4800000000000000000000000000000000007B
:102D5800000000000000000000000000000000006B
:102D6800000000000000000000000000000000005B
:102D7800000000000000000000000000000000004B
:102D8800000000000000000000000000000000003B
:102D9800000000000000000000000000000000002B
:102DA800000000000000000000000000000000001B
:102DB800000000000000000000000000000000000B
:102DC80000000000000000000100000000000000FA
:102DD8000E33CDAB34126DE6ECDE05000B000000BF
:102DE80000000000000000000000000000000000DB
:102DF80000000000000000000000000000000000CB
:102E080000000000000000000000000000000000BA
:102E180000000000000000000000000000000000AA
:0C314800000000000000000078040020DF
:040000050800244D7E
:00000001FF
