:020000040800F2
:10000000000002207D0B0008C50B0008C50B00088E
:10001000C50B0008C50B0008C50B00080000000058
:10002000000000000000000000000000C50B0008F8
:10003000C50B000800000000C50B0008C50B000838
:10004000C50B0008C50B0008C50B0008C50B000850
:10005000C50B0008C50B0008C50B0008C50B000840
:10006000C50B0008C50B0008C50B0008C50B000830
:10007000C50B0008C50B0008C50B0008C50B000820
:10008000C50B0008C50B0008C50B0008C50B000810
:10009000C50B0008C50B0008C50B0008C50B000800
:1000A000C50B0008C50B0008C50B0008C50B0008F0
:1000B000C50B0008C50B0008C50B0008C50B0008E0
:1000C000C50B0008C50B0008C50B0008C50B0008D0
:1000D000C50B0008C50B0008C50B0008C50B0008C0
:1000E000C50B0008C50B0008C50B0008C50B0008B0
:1000F000C50B0008C50B0008C50B0008C50B0008A0
:10010000C50B0008C50B0008C50B0008C50B00088F
:10011000C50B0008C50B0008C50B0008C50B00087F
:10012000C50B0008C50B0008C50B0008C50B00086F
:10013000C50B0008C50B0008C50B0008C50B00085F
:10014000C50B0008C50B0008C50B0008C50B00084F
:10015000C50B0008C50B0008C50B0008C50B00083F
:10016000C50B0008C50B0008C50B0008C50B00082F
:10017000C50B0008C50B0008C50B0008C50B00081F
:08018000C50B0008C50B0008C7
:1001880010B5054C237833B9044B13B10448AFF3C9
:1001980000800123237010BD4C04002000000000E3
:1001A800B80E000808B5034B1BB103490348AFF369
:1001B800008008BD0000000050040020B80E0008B0
:1001C800154B002B08BF134B9D46A3F5803A002121
:1001D8008B460F461348144A121A00F025FD0F4BA0
:1001E800002B00D098470E4B002B00D098470020DA
:1001F800002104000D000D48002802D00C4800F032
:10020800D3FD00F0EDFC2000290000F08DFC00F08B
:10021800D7FC00BF0000080000000000000000003C
:10022800000000004C0400208C040020B10D0008E0
:10023800BD0D0008374B38481A68002142F001020A
:100248001A6099601A6822F0847222F480321A6067
:1002580058601A6882B022F480221A60D96000912E
:1002680001911A6842F480321A6003E0009AB2F5EC
:10027800A06F09D01A6802F400320192009A013284
:100288000092019A002AF1D0224B1B6813F4003324
:1002980018BF01230193019B012B0BD01F4BD3F8EF
:1002A80088204FF0006142F47002C3F888209960FA
:1002B80002B07047174B1A491A6C1A4842F080521C
:1002C8001A640A6842F480420A609A689A609A68D6
:1002D80042F400429A609A6842F4A0529A605860C8
:1002E8001A6842F080721A601A689201FCD50E4AA8
:1002F800084940F2056010609A6822F003029A608B
:100308009A6842F002029A608B6803F00C03082B8B
:10031800FAD1C3E7003802401030002400ED00E0B5
:100328000070004008544007003C0240154A93689A
:1003380003F00C03042B0BD0082B0BD0124B114AE3
:1003480012499268C2F303128A5CD3400B6170476A
:100358000F4BF4E75068516852684302C2F38812A1
:100368004CBF0B4B084B01F03F01B3FBF1F303FB10
:1003780002F3044A5268C2F3014201325200B3FB4D
:10038800F2F3DCE7003802400024F4000400002007
:1003980000127A001B491C4A0B6C30B443F480737A
:1003A80053254FF47A740B64D562148513889BB275
:1003B80043F080031380938A9BB243F00103938236
:1003C80013889BB243F00103138060B1138ADB07E3
:1003D800FCD5138A23F0010301381B041B0C80B2DF
:1003E80013820028F2D10849064A0B8823F001033A
:1003F8001B041B0C0B80136C03F4807330BC136458
:10040800704700BF00380240002000400D4ADFF866
:1004180038C0F0B400F10A063027914206F8017D91
:1004280007D33123891A5C1C91421D46E3B2F9D2E5
:100438003570ACFB023286424FEAD202EDD1F0BCF5
:10044800704700BF00CA9A3BCDCCCCCC70B400F149
:100458000A04002614F8013D302BF5B220D00C8890
:1004680013550B886C1C0133E4B29BB20A2C0B8029
:1004780012D0C5F1080500F10806361BEDB2C4F12B
:100488000904751B044414F80109D0540B8801337E
:100498009BB2A5420B80F6D1002170BCD1547047A5
:1004A800092E01D00136D5E7088813540B8801338B
:1004B8009BB20B80002170BCD15470472DE9F04FDE
:1004C80087B00023B0F5807F1370ADF80A3000F0D4
:1004D800D68043D8013883B21F2B3CD81F283AD87E
:1004E800DFE800F0788B39A03939391039393939D2
:1004F800393939103939393939393939393939398D
:10050800393939100B68002B07DA2D2313700B6863
:1005180001205B420B60ADF80A00BF48BF4E194688
:100528000DF10C0A0DF116043025884204F8015D1E
:1005380006D83023091A01338142DBB2FAD223707C
:10054800A6FB0030A2454FEAD000EED10DF10A011A
:100558005046FFF77BFF07B0BDE8F08FB0F5806F1E
:1005680076D0B0F5006F18D10B68104602F1080577
:10057800B3F1204F4FEA137404F130032ABF373424
:10058800037004700B6801301B0185420B60EFD1CA
:100598000023137207B0BDE8F08FB0F5007FDAD101
:1005A8000B68C3F30313092B8CBF37333033137035
:1005B8000B68180103F00F03092B94BF303337334E
:1005C800086053700B6800201B010B60907007B027
:1005D800BDE8F08F0B68104602F10804302631257B
:1005E8001F064CBF057006700B6801305B00844223
:1005F8000B60F5D100231372CCE70B68104602F1AB
:100608001004302631251B044CBF057006700B689A
:1006180001305B0084420B60F5D10023137407B0EE
:10062800BDE8F08F0B68104602F120043025312612
:10063800002BB4BF067005700B6801305B00844264
:100648000B60F5D1002382F8203007B0BDE8F08FA9
:100658000B681046151DC3F30333092B03F130044F
:100668008ABF3733047003700B6801301B01854261
:100678000B60F0D10023137107B0BDE8F08FD1ED06
:10068800006AF5EEC06AF1EE10FA06D52D210123B5
:10069800F1EE666A1170ADF80A30F7EE007AF4EE02
:1006A800E76AF1EE10FA00F1998040F3AD8000237B
:1006B800B2EE046A67EE867A1C46F4EEE76AF1EE5B
:1006C80010FA03F10103F5DC87EE867AA4B2202341
:1006D80000930DF11608504EDFF840B1C4460DF1F5
:1006E8000C0A4FF0300EC6EE877A9FED4D7AFCEE7D
:1006F800E76A16EE903AF8EE666A77EEE67A67EE03
:10070800877AFCEEE77A17EE905A9E42E1460CF89B
:1007180001ED08D831219B1B4F1CB3420846F9B2A2
:10072800F9D28CF80000ABFB0616E2454FEAD60674
:10073800EBD10DF10A0150460191FFF787FE3648CB
:10074800DFF8D8C001993027A842464608F8017D4D
:1007580007D830232D1A01338542DBB2FAD288F844
:100768000030ACFB0030B1454FEAD000ECD12E236D
:10077800504601918DF80F30FFF768FEBDF80A006A
:100788000099431C65259BB22D2915540199ADF894
:100798000A3004D1009DD5540230ADF80A004FF05C
:1007A800300C1D48DFF874E08DF815C0A9F1020976
:1007B80005AFAEFB0030B9454FEAD0003FF4C8AEF4
:1007C800844287F800C007D33123241A5D1C844271
:1007D8001E46EBB2F9D23E70013FEAE79FED117A6F
:1007E800F4EEC76AF1EE10FA13D5F0EE477A012459
:1007F80027EE277A0134F4EEC76AF1EE10FAA4B2B4
:10080800F6D42D23009364E79FED067A4FF6FF7424
:100818005DE70124F5E700BF00CA9A3BCDCCCCCCFC
:1008280000007A44CDCCCC3D114A124B124910B489
:10083800146B44F001041463146C44F4003414641D
:100848001A6842F0A0021A601A6A42F4EE421A626A
:100858009A6842F020029A609A6842F20C0480B2C8
:1008680042F080029A6008818C815DF8044B7047E1
:10087800003802400000024000440040034A138848
:100888005B06FCD580B29080704700BF00440040F2
:100898000C4A30B4441E0D2500F2FF3014F8011F35
:1008A80049B113885B06FCD589B2918023780A2B5D
:1008B80003D08442F2D130BC704713885B06FCD564
:1008C8009580F6E7004400400FB42DE9F0478CB05E
:1008D80014AB53F804AB01939AF80020002A35D0E2
:1008E80000247C4DDFF8F091234651464FF00D0867
:1008F8000BE00AEB03025378BBB90134A4B22346D8
:100908001AF804200AEB040102B3252AF1D02B8837
:100918005806FCD592B2AA800B780A2BEDD12B8809
:100928005B06FCD5A5F80480E7E7623B162B75D873
:10093800DFE803F0665C4E742B747474747474741A
:100948007474747474227474747411000CB0BDE8F7
:10095800F04704B070479378622B00F08E80682BC4
:1009680066D0772B019B00F09B801A1D1B684FF403
:100978000060CDE9003223E0019B1A1D186801923E
:10098800FFF786FF0134A4B2B7E7019B073323F0D2
:100998000703D3E90001083309EAC10200280193DB
:1009A80042EA507371F10002B8BF43F000430026D9
:1009B80001F08047009356EA070332D14FF4807064
:1009C80002AA6946FFF77AFD02A8FFF761FFD9E797
:1009D8009378622B48D0682B3DD0772B019B68D049
:1009E8001A1D1B682020CDE90032E9E7019B191D7B
:1009F8001A7801912B885E06FCD593B2AB80C1E7CB
:100A08009378622B43D0682B1CD0772B019B58D04E
:100A18001A1D1B680420CDE90032D1E7002300939A
:100A2800B0E7009B43F0804300934FF48070C7E722
:100A3800019B01341A1D1B680192A4B200934FF464
:100A48008060BDE7019B01341A1D1B680192A4B2A6
:100A580000930220B4E7019B01341A1D1B68019220
:100A6800A4B200931020ABE7019B01341A1D1B6848
:100A78000192A4B200930820A2E7019B01341A1D39
:100A88001B680192A4B200934FF4007098E7019B91
:100A980001341A1D1B680192A4B2009301208FE74C
:100AA8001A1D01341B680192A4B200934FF4006030
:100AB80086E71A1D01341B680192A4B20093202016
:100AC8007EE71A1D01341B680192A4B2009304202A
:100AD80076E700BF00440040F8FFFF3F0C4B9A89BF
:100AE80092B242F4005242F004029A811A889206A5
:100AF800FCD598881A8822F020021204120C1A8059
:100B08009A8922F004021204120CC0B29A8170472A
:100B180000440040E80E0008000000204C040020BB
:100B28004C0400208C0400200F4A104C08B5136BAD
:100B380043F008031363236843F0807323606368FA
:100B48006360A36843F000734FF4B670A360FFF7C7
:100B58006BFE0748FFF7B8FE636983F4805363614F
:100B68006420FFF717FCF7E700380240000C02404A
:100B7800A00E0008002103E00B4B5B5843500431E2
:100B88000A480B4B42189A42F6D30A4A02E000235D
:100B980042F8043B084B9A42F9D3FFF74BFB00F0AD
:100BA8001FF8FFF7C1FF7047E80E0008000000209B
:100BB8004C0400204C0400208C040020FEE70000B8
:100BC80008B50021044600F089F8044B1868C36B87
:100BD80003B19847204600F079F900BFB40E000829
:100BE80070B50D4E0D4D761BB61006D0002455F885
:100BF800043B01349847A642F9D1094E094D761BAA
:100C080000F058F9B61006D0002455F8043B01341A
:100C18009847A642F9D170BDDC0E0008DC0E00082A
:100C2800E40E0008DC0E0008F0B4860746D0541E17
:100C3800002A3CD0CAB2034601E0013C37D303F88E
:100C4800012B9D07F9D1032C2AD9CDB245EA0525F8
:100C58000F2C45EA054534D9A4F1100222F00F0CF7
:100C680003F120071609674403F1100242E904550D
:100C780042E902551032BA42F8D1721C14F00C0F36
:100C880003EB021204F00F0613D0331F23F0030303
:100C98000433134442F8045B9342FBD106F0030487
:100CA8002CB1CAB21C4403F8012B9C42FBD1F0BC06
:100CB800704734461346002CF3D1F8E71446034630
:100CC800C1E71A462646E0E7024B13B1024800F096
:100CD8006BB8704700000000BD0D00082DE9F84F03
:100CE8002F4B2DED028B834618680F4600F082F8D3
:100CF8002C4BD3F80080D8F84861AEB108EE10BA92
:100D08004FF001094FF0000A7468651E0CD40134D5
:100D180006EB840487B1D4F80031BB420CD0013D06
:100D28006B1CA4F10404F5D1BDEC028B1C4B1868B4
:100D3800BDE8F84F00F066B873682268013BAB4223
:100D48000CBF7560C4F800A0002AE8D0D6F8880166
:100D5800D6F804B009FA05F101420BD19047726840
:100D68005A4513D1D8F84831B342D8D01E46002E80
:100D7800CAD1D9E7D6F88C0101420CD1D4F8801039
:100D880018EE100A904772685A45EBD0D8F84861B7
:100D9800002EB9D1C8E7D4F880009047DFE700BF3C
:100DA80048040020B40E0008002301461A461846DD
:100DB80000F02AB838B5084B084D5B1B9C1007D0CB
:100DC800043B1D44013C55F804399847002CF9D1DF
:100DD800BDE8384000F074B8E80E0008E40E0008DA
:100DE800704700BF704700BF704700BF704700BF23
:100DF800704700BF704700BF01207047012070474F
:100E0800704700BF704700BF2DE9F047DFF880A0AA
:100E18000646DAF8000098460F469146FFF7EAFFC3
:100E28001A4B1B68D3F8484124B365681F2D26DC8C
:100E38005EB9AB1C0135DAF80000656044F8237030
:100E4800FFF7E0FF0020BDE8F08704EB85030121F0
:100E5800C3F88890D4F88821A9400A43022EC4F820
:100E68008821C3F80881E4D1D4F88C311943C4F837
:100E78008C11DEE703F5A674C3F84841D5E7DAF824
:100E88000000FFF7BFFF4FF0FF30DCE7B40E0008AB
:100E980048040020FEE700BF57616974696E672047
:100EA800666F7220636F64650A00000020000020EE
:100EB80000000000F8B500BFF8BC08BC9E467047AB
:0C0EC800F8B500BFF8BC08BC9E4670479F
:080ED400F4F2FF7F01000000B1
:080EDC00D10C0008AD01000873
:040EE4008901000878
:100EE80000000000000000000000000001020304F0
:100EF80006070809007A030A200000200000000005
:100F0800000000000C03002074030020DC03002014
:100F180000000000000000000000000000000000C9
:100F280000000000000000000000000000000000B9
:100F380000000000000000000000000000000000A9
:100F48000000000000000000000000000000000099
:100F58000000000000000000000000000000000089
:100F68000000000000000000000000000000000079
:100F78000000000000000000000000000000000069
:100F88000000000000000000000000000000000059
:100F98000000000000000000000000000000000049
:100FA8000000000000000000010000000000000038
:100FB8000E33CDAB34126DE6ECDE05000B000000FD
:100FC8000000000000000000000000000000000019
:100FD8000000000000000000000000000000000009
:100FE80000000000000000000000000000000000F9
:100FF80000000000000000000000000000000000E9
:0C1328000000000000000000680400202D
:0400000508000B7D67
:00000001FF
